{"abi":[{"type":"constructor","inputs":[{"name":"_uniswapV2Factory","type":"address","internalType":"address"},{"name":"_uniswapV3Factory","type":"address","internalType":"address"},{"name":"_weth","type":"address","internalType":"address"}],"stateMutability":"nonpayable"},{"type":"function","name":"getWethValueInPools","inputs":[{"name":"pools","type":"tuple[]","internalType":"struct WethValueInPools.PoolInfo[]","components":[{"name":"poolType","type":"uint8","internalType":"enum WethValueInPools.PoolType"},{"name":"poolAddress","type":"address","internalType":"address"}]}],"outputs":[{"name":"","type":"tuple[]","internalType":"struct WethValueInPools.PoolInfoReturn[]","components":[{"name":"poolType","type":"uint8","internalType":"enum WethValueInPools.PoolType"},{"name":"poolAddress","type":"address","internalType":"address"},{"name":"wethValue","type":"uint256","internalType":"uint256"}]}],"stateMutability":"nonpayable"}],"bytecode":{"object":"0x608060405234801561001057600080fd5b506040516119f43803806119f483398101604081905261002f916100a6565b600080546001600160a01b039485166001600160a01b0319918216179091556001805493851693821693909317909255600280549190931691161790556100f6565b60006001600160a01b0382165b92915050565b61008d81610071565b811461009857600080fd5b50565b805161007e81610084565b6000806000606084860312156100be576100be600080fd5b60006100ca868661009b565b93505060206100db8682870161009b565b92505060406100ec8682870161009b565b9150509250925092565b6118ef806101056000396000f3fe608060405234801561001057600080fd5b506004361061002b5760003560e01c8063339173fd14610030575b600080fd5b61004361003e36600461123f565b610059565b604051610050919061136d565b60405180910390f35b60606000825167ffffffffffffffff811115610077576100776110a1565b6040519080825280602002602001820160405280156100c257816020015b60408051606081018252600080825260208083018290529282015282526000199092019101816100955790505b50905060005b83518110156102445760008482815181106100e5576100e561137e565b60200260200101519050600060028111156101025761010261127a565b815160028111156101155761011561127a565b0361018b576000610129826020015161024b565b905060405180606001604052808360000151600281111561014c5761014c61127a565b815260200183602001516001600160a01b031681526020018281525084848151811061017a5761017a61137e565b60200260200101819052505061023b565b6001815160028111156101a0576101a061127a565b036101b4576000610129826020015161046e565b6002815160028111156101c9576101c961127a565b0361023b5760006101dd8260200151610632565b90506040518060600160405280836000015160028111156102005761020061127a565b815260200183602001516001600160a01b031681526020018281525084848151811061022e5761022e61137e565b6020026020010181905250505b506001016100c8565b5092915050565b60006060826001600160a01b031663cc77828d6040518163ffffffff1660e01b81526004016000604051808303816000875af19250505080156102b057506040513d6000823e601f3d908101601f191682016040526102ad9190810190611414565b60015b6102bd5750600092915050565b905060005b81518110156103af5760025482516001600160a01b03909116908390839081106102ee576102ee61137e565b60200260200101516001600160a01b0316036103a757836001600160a01b031663f8b2cb4f8383815181106103255761032561137e565b60200260200101516040518263ffffffff1660e01b8152600401610349919061144f565b6020604051808303816000875af1925050508015610384575060408051601f3d908101601f191682019092526103819181019061146e565b60015b610392575060009392505050565b825161039e90826114a5565b95945050505050565b6001016102c2565b506000816000815181106103c5576103c561137e565b602002602001015190506000846001600160a01b031663f8b2cb4f836040518263ffffffff1660e01b81526004016103fd919061144f565b6020604051808303816000875af1925050508015610438575060408051601f3d908101601f191682019092526104359181019061146e565b60015b61044757506000949350505050565b90506000610455838361086c565b905083518161046491906114a5565b9695505050505050565b600080826001600160a01b0316630dfe16816040518163ffffffff1660e01b8152600401602060405180830381865afa9250505080156104cb575060408051601f3d908101601f191682019092526104c8918101906114bd565b60015b6104d85750600092915050565b90506000836001600160a01b031663d21220a76040518163ffffffff1660e01b8152600401602060405180830381865afa925050508015610536575060408051601f3d908101601f19168201909252610533918101906114bd565b60015b610544575060009392505050565b9050836001600160a01b0316630902f1ac6040518163ffffffff1660e01b8152600401606060405180830381865afa9250505080156105a0575060408051601f3d908101601f1916820190925261059d9181019061150f565b60015b6105ae575060009392505050565b6002546001600160a01b03908116908616036105e3576105cf83600261155f565b6001600160701b0316979650505050505050565b6002546001600160a01b0390811690851603610604576105cf82600261155f565b600061061986856001600160701b031661086c565b90506106268160026114a5565b98975050505050505050565b600080826001600160a01b0316630dfe16816040518163ffffffff1660e01b8152600401602060405180830381865afa92505050801561068f575060408051601f3d908101601f1916820190925261068c918101906114bd565b60015b61069c5750600092915050565b90506000836001600160a01b031663d21220a76040518163ffffffff1660e01b8152600401602060405180830381865afa9250505080156106fa575060408051601f3d908101601f191682019092526106f7918101906114bd565b60015b610708575060009392505050565b90506002546001600160a01b039081169083160361079e576040516370a0823160e01b81526001600160a01b038316906370a082319061074c90879060040161144f565b602060405180830381865afa925050508015610785575060408051601f3d908101601f191682019092526107829181019061146e565b60015b610793575060009392505050565b61039e8160026114a5565b6002546001600160a01b03908116908216036107e0576040516370a0823160e01b81526001600160a01b038216906370a082319061074c90879060040161144f565b6040516370a0823160e01b81526001600160a01b038316906370a082319061080c90879060040161144f565b602060405180830381865afa925050508015610845575060408051601f3d908101601f191682019092526108429181019061146e565b60015b610853575060009392505050565b600061085f848361086c565b90506104648160026114a5565b600080610878846108ad565b90506001600160801b0381161561089b5761089381846108e0565b9150506108a7565b6001600160801b031690505b92915050565b6000806108b983610956565b90506001600160801b038116156108d05792915050565b6108d983610b7e565b9392505050565b60008115806108f657506001600160801b038316155b15610903575060006108a7565b6001600160801b03838116908316810260401c90608084901c026001600160c01b03811115610937576000925050506108a7565b60401b811981111561094e576000925050506108a7565b019392505050565b6000805460025460405163e6a4390560e01b815283926001600160a01b039081169263e6a439059261098e9288921690600401611585565b602060405180830381865afa1580156109ab573d6000803e3d6000fd5b505050506040513d601f19601f820116820180604052508101906109cf91906114bd565b90506001600160a01b0381166109e85750600092915050565b600080826001600160a01b0316630902f1ac6040518163ffffffff1660e01b8152600401606060405180830381865afa925050508015610a45575060408051601f3d908101601f19168201909252610a429181019061150f565b60015b610a5457506000949350505050565b5090925090506001600160701b0382161580610a7757506001600160701b038116155b15610a8757506000949350505050565b600080610a9387610d5a565b9150915080610aa9575060009695505050505050565b6002546000906001600160a01b0390811690891610610ac85784610aca565b835b6002549091506000906001600160a01b03908116908a1610610aec5784610aee565b855b9050601260ff85161115610b2a57610b076012856115a0565b610b1290600a6116cb565b610b25906001600160701b0383166116f6565b610b53565b610b358460126115a0565b610b4090600a6116cb565b610b53906001600160701b0383166114a5565b9050610b71826001600160701b0316826001600160701b0316610e5c565b9998505050505050505050565b604080516060810182526101f48152610bb860208201526127109181019190915260009081805b6003811015610c63576001546002546000916001600160a01b0390811691631698ee8291899116878660038110610bde57610bde61137e565b60200201516040518463ffffffff1660e01b8152600401610c019392919061171f565b602060405180830381865afa158015610c1e573d6000803e3d6000fd5b505050506040513d601f19601f82011682018060405250810190610c4291906114bd565b90506001600160a01b03831615610c5a579150610c63565b50600101610ba5565b506001600160a01b038116610c7c575060009392505050565b6000816001600160a01b0316633850c7bd6040518163ffffffff1660e01b815260040160e060405180830381865afa925050508015610cd8575060408051601f3d908101601f19168201909252610cd5918101906117b2565b60015b610ce757506000949350505050565b5094955050505050506002546001600160a01b0390811690861610600080610d0e88610d5a565b9150915080610d2557506000979650505050505050565b6040610d4c858586610d38576012610d3a565b855b87610d455786610fd0565b6012610fd0565b901c98975050505050505050565b60408051600481526024810182526020810180516001600160e01b031663313ce56760e01b17905290516000918291829182916001600160a01b03871691614e2091610da69190611897565b60006040518083038160008787f1925050503d8060008114610de4576040519150601f19603f3d011682016040523d82523d6000602084013e610de9565b606091505b50915091508115610e4f5760008151602003610e415781806020019051810190610e13919061146e565b9050801580610e22575060ff81115b15610e3557506000958695509350505050565b95600195509350505050565b506000958695509350505050565b5060009485945092505050565b600081600003610e6e575060006108a7565b60006001600160c01b038411610e995782604085901b81610e9157610e916116e0565b049050610fb7565b60c084811c6401000000008110610eb2576020918201911c5b620100008110610ec4576010918201911c5b6101008110610ed5576008918201911c5b60108110610ee5576004918201911c5b60048110610ef5576002918201911c5b60028110610f04576001820191505b60bf820360018603901c6001018260ff0387901b81610f2557610f256116e0565b0492506001600160801b03831115610f4357600093505050506108a7565b608085901c83026001600160801b038616840260c088901c604089901b82811015610f6f576001820391505b608084901b92900382811015610f86576001820391505b829003608084901c8214610f9c57610f9c6118a3565b888181610fab57610fab6116e0565b04870196505050505050505b6001600160801b038111156108d95760009150506108a7565b60008183038181810b8113610ff9578160ff16600a0a6002886001600160a01b03160a0261101f565b8160000360ff16600a0a6002886001600160a01b03160a8161101d5761101d6116e0565b045b905080600160601b111561103857600092505050611099565b60008661106d57600160601b82046fffffffffffffffffffffffffffffffff60601b81611067576110676116e0565b04611075565b600160601b82045b9050866110825780611093565b600160601b6001600160801b038202045b93505050505b949350505050565b634e487b7160e01b600052604160045260246000fd5b601f19601f830116810181811067ffffffffffffffff821117156110dd576110dd6110a1565b6040525050565b60006110ef60405190565b90506110fb82826110b7565b919050565b600067ffffffffffffffff82111561111a5761111a6110a1565b5060209081020190565b6003811061113157600080fd5b50565b80356108a781611124565b60006001600160a01b0382166108a7565b6111598161113f565b811461113157600080fd5b80356108a781611150565b60006040828403121561118457611184600080fd5b61118e60406110e4565b9050600061119c8484611134565b82525060206111ad84848301611164565b60208301525092915050565b60006111cc6111c784611100565b6110e4565b838152905060208101604084028301858111156111eb576111eb600080fd5b835b818110156112115780611200888261116f565b8452506020909201916040016111ed565b5050509392505050565b600082601f83011261122f5761122f600080fd5b81356110998482602086016111b9565b60006020828403121561125457611254600080fd5b813567ffffffffffffffff81111561126e5761126e600080fd5b6110998482850161121b565b634e487b7160e01b600052602160045260246000fd5b600381106111315761113161127a565b806110fb81611290565b60006108a7826112a0565b6112be816112aa565b82525050565b6112be8161113f565b806112be565b805160608301906112e484826112b5565b5060208201516112f760208501826112c4565b50604082015161130a60408501826112cd565b50505050565b600061131c83836112d3565b505060600190565b600061132e825190565b80845260209384019383018060005b838110156113625781516113518882611310565b97506020830192505060010161133d565b509495945050505050565b602080825281016108d98184611324565b634e487b7160e01b600052603260045260246000fd5b80516108a781611150565b60006113ad6111c784611100565b838152905060208082019084028301858111156113cc576113cc600080fd5b835b8181101561121157806113e18882611394565b845250602092830192016113ce565b600082601f83011261140457611404600080fd5b815161109984826020860161139f565b60006020828403121561142957611429600080fd5b815167ffffffffffffffff81111561144357611443600080fd5b611099848285016113f0565b602081016108a782846112c4565b80611159565b80516108a78161145d565b60006020828403121561148357611483600080fd5b60006110998484611463565b634e487b7160e01b600052601160045260246000fd5b8181028082158382048514176102445761024461148f565b6000602082840312156114d2576114d2600080fd5b60006110998484611394565b6001600160701b038116611159565b80516108a7816114de565b63ffffffff8116611159565b80516108a7816114f8565b60008060006060848603121561152757611527600080fd5b600061153386866114ed565b9350506020611544868287016114ed565b925050604061155586828701611504565b9150509250925092565b6001600160701b039182169190811690828202908116908181146102445761024461148f565b6040810161159382856112c4565b6108d960208301846112c4565b60ff9182169190811690828203908111156108a7576108a761148f565b80825b60018511156115fc578086048111156115db576115db61148f565b60018516156115e957908102905b80026115f58560011c90565b94506115c0565b94509492505050565b600082611614575060016108d9565b81611621575060006108d9565b816001811461163757600281146116415761166e565b60019150506108d9565b60ff8411156116525761165261148f565b8360020a9150848211156116685761166861148f565b506108d9565b5060208310610133831016604e8410600b84101617156116a1575081810a8381111561169c5761169c61148f565b6108d9565b6116ae84848460016115bd565b925090508184048111156116c4576116c461148f565b0292915050565b600060ff831692506108d96000198484611605565b634e487b7160e01b600052601260045260246000fd5b600082611705576117056116e0565b500490565b600061ffff82166108a7565b6112be8161170a565b6060810161172d82866112c4565b61173a60208301856112c4565b6110996040830184611716565b6001600160a01b038116611159565b80516108a781611747565b6111598160020b90565b80516108a781611761565b61ffff8116611159565b80516108a781611776565b60ff8116611159565b80516108a78161178b565b801515611159565b80516108a78161179f565b600080600080600080600060e0888a0312156117d0576117d0600080fd5b60006117dc8a8a611756565b97505060206117ed8a828b0161176b565b96505060406117fe8a828b01611780565b955050606061180f8a828b01611780565b94505060806118208a828b01611780565b93505060a06118318a828b01611794565b92505060c06118428a828b016117a7565b91505092959891949750929550565b60005b8381101561186c578181015183820152602001611854565b50506000910152565b600061187f825190565b61188d818560208601611851565b9290920192915050565b60006108d98284611875565b634e487b7160e01b600052600160045260246000fdfea2646970667358221220b77adb3daa479cd3eb44443437e2ceebd5430ce51b303729ddb7febb652928fc64736f6c634300081c0033","linkReferences":{}},"methodIdentifiers":{"getWethValueInPools((uint8,address)[])":"339173fd"},"id":14}